:020000040800F2
:100000001895002045010008310900088B070008F9
:100010002D090008DB010008A124000800000000F1
:10002000000000000000000000000000C5210008E2
:100030007D04000800000000E5090008AD2200086A
:100040005F0100085F0100085F0100085F01000810
:100050005F0100085F0100085F0100085F01000800
:100060005F0100085F0100085F0100085F010008F0
:100070005F0100085F0100085F0100085F010008E0
:100080005F0100085F0100085F0100085F010008D0
:100090005F0100085F0100085F0100085F010008C0
:1000A0005F0100085F0100085F0100085F010008B0
:1000B0005F0100085F0100085F0100085F010008A0
:1000C0005F0100085F0100085F0100085F01000890
:1000D0005F0100085F0100085F0100085F01000880
:1000E0005F0100085F0100085F0100085F01000870
:1000F0005F0100085F0100085F0100085F01000860
:100100005F010008710D00085F0100085F01000831
:100110005F0100085F0100085F0100085F0100083F
:100120005F0100085F0100085F0100085F0100082F
:10013000DFF80CD000F02EF8004800477D260008BC
:10014000189500200648804706480047FEE7FEE76E
:10015000FEE7FEE7FEE7FEE7FEE7FEE7FEE7FEE777
:10016000B12200083101000830B50B4601460020DD
:100170002022012409E021FA02F59D4205D303FA69
:1001800002F5491B04FA02F52844151EA2F10102EA
:10019000F1DC30BD064C074D06E0E06840F001039D
:1001A00094E8070098471034AC42F6D3FFF7C4FF39
:1001B000302800085028000810B5034607E01878DA
:1001C0000C78A04201D0002010BD5B1C491C10001F
:1001D000A2F10102F3D10120F6E700BFFEE770B5FE
:1001E00000254FF4803400E0641E24B1802000F02C
:1001F0009FFD0028F8D014B90325284670BD40F2B1
:10020000FF5000F04DFD2846F8E70000014600BF12
:100210000748406B10F0450FFAD040F2FF50044AF7
:1002200090631046406908221040C0B27047000039
:100230000080014070B500250F48446B01E00E4876
:10024000446B14F0450FFAD014F0040F05D00325C9
:10025000042000F025FD284670BD14F0010F05D0E4
:100260000125012000F01CFD2846F5E740F2FF5073
:1002700000F016FD2846EFE70080014070B500252C
:100280000B48446B01E00A48446B14F0450FFAD068
:1002900014F0040F05D00325042000F001FD2846CA
:1002A00070BD40F2FF5000F0FBFC2846F8E700006C
:1002B000008001402DE9F04106460F464FF000084E
:1002C0002248456B01E02148456B15F0450FFAD0F7
:1002D00015F0040F07D04FF00308042000F0E0FCF5
:1002E0004046BDE8F08115F0010F06D04FF001083F
:1002F000012000F0D5FC4046F3E700F013FDB042CA
:1003000003D04FF010084046EBE740F2FF5000F0FA
:10031000C7FC002000F020FD044614F4604F03D118
:10032000200C38804046DCE714F4005F01D0132035
:10033000D7E714F4804F01D01020D2E714F4004F17
:1003400001D00F20CDE74046CBE700000080014000
:1003500070B500264FF480351248446B02E06D1EE4
:100360001048446B14F0450F01D1002DF7D115B1A1
:1003700014F0040F08D00326042000F091FC0AA01A
:1003800002F090F8304670BD14F0400F08D00026FF
:10039000402000F085FC0AA002F084F83046F2E725
:1003A0003046F0E700800140200D0A20BBF2CEAAC3
:1003B000B2BBD6A7B3D6B5C4BFA8D0CD0D0A200016
:1003C0000D0AB4CB5344BFA8B7FBBACF322E30D0FE
:1003D000ADD2E9A3ACCEAA322E30BFA80D0A0000E0
:1003E00010F0805F02D00349086001E002494860D4
:1003F00070470000040402400000024021B102687E
:1004000042F00102026004E002684FF6FE731A40F7
:100410000260704701460020002211F0805F02D088
:10042000054B1A6801E0054B1A680A4201D0012009
:1004300000E000207047000000040240000002407D
:1004400010B50022026847F6F0739A430C6A8B6875
:1004500023430C6923434C6923438C692343CC69B0
:1004600023434C6A23438C6A23431A430260CB68BC
:1004700043600B6883604B68C36010BD704710B564
:100480000346002000BF03E084181C54441CA0B2A3
:100490008842F9D310BD00002DE9FC4107460D4606
:1004A0000026002400200090019008205C4908608C
:1004B00010204860402088600020C8604FF48060B1
:1004C0000861084600F086FC1020FFF79FFE0446F6
:1004D00014B12046BDE8FC81524800880004504910
:1004E000086037204860402088600020C8604FF4D2
:1004F00080600861084600F06DFC3720FFF786FE3B
:1005000004460CB12046E5E74FF0FF30464908604D
:1005100008204860302088600220C8600020086100
:1005200001204861084600F0D3FB00203C490860E8
:1005300033204860402088600020C8604FF480600D
:100540000861084600F046FC3320FFF75FFE0446D2
:100550000CB12046BEE70CE04FF4001000F0E8FBC1
:1005600038B100F031FC4DF82600761C012E00D980
:1005700005E02E48406B40F22A610842ECD000BFF3
:10058000082000F0D5FB28B1082000F089FB0424E6
:1005900020469FE7022000F0CBFB28B1022000F0AC
:1005A0007FFB0224204695E7202000F0C1FB28B104
:1005B000202000F075FB062420468BE74FF40070E6
:1005C00000F0B6FB30B14FF4007000F069FB072477
:1005D00020467FE740F2FF5000F062FB00980006E3
:1005E000009901F47F4140EA0120009901F47F0164
:1005F00040EA1120009940EA116068600198000605
:10060000019901F47F4140EA0120019901F47F0141
:1006100040EA1120019940EA11602860204659E71C
:10062000E890002030000020FC9000200080014075
:1006300008B50121302000F0E7F94FF4F850ADF88B
:10064000000003208DF8020018208DF80300694691
:10065000074800F011F80420ADF80000694605488D
:1006600000F00AF8012140F2024000F0BDF908BD97
:1006700000100140001401402DE9F0410246002520
:100680000026002000230024002791F803C00CF06E
:100690000F0591F803C01CF0100F03D091F802C0B1
:1006A0004CEA050591F800C0BCF1000F31D0146888
:1006B00000202BE04FF0010C0CFA00F3B1F800C061
:1006C0000CEA03069E4220D183004FF00F0C0CFA77
:1006D00003F7BC4305FA03FC4CEA040491F803C099
:1006E000BCF1280F06D14FF0010C0CFA00FCC2F847
:1006F00014C00AE091F803C0BCF1480F05D14FF0D7
:10070000010C0CFA00FCC2F810C0401C0828D1D320
:100710001460B1F800C0BCF1FF0F34DD5468002054
:100720002EE000F1080C4FF0010808FA0CF3B1F8C4
:1007300000C00CEA03069E4221D183004FF00F0C4B
:100740000CFA03F7BC4305FA03FC4CEA040491F8E5
:1007500003C0BCF1280F05D100F1080C08FA0CF811
:10076000C2F8148091F803C0BCF1480F07D100F122
:10077000080C4FF0010808FA0CF8C2F81080401C71
:100780000828CED35460BDE8F08100BFFEE700002A
:100790007CB5044600250020019000905F48008849
:1007A00000045F4908600D204860402088600020F8
:1007B000C8604FF480600861084600F00BFB5948A0
:1007C000406B009002E05748406B0090009810F09A
:1007D000450FF8D0009810F0040F05D00325042031
:1007E00000F05EFA28467CBD009810F0010F05D09D
:1007F0000125012000F054FA2846F4E700F092FAAF
:10080000009000980D2802D010252846EBE740F212
:10081000FF5000F045FA002000F09EFA0190019888
:10082000C0F34320207040490198084201D1284676
:10083000D9E7019810F0004F01D01C20D3E70198B0
:1008400010F0804F01D00920CDE7019810F0005F33
:1008500001D00A20C7E7019810F0805F01D00B207B
:10086000C1E7019810F0006F01D00C20BBE70198A0
:1008700010F0806F01D00D20B5E7019810F0807F57
:1008800001D00E20AFE7019810F4000F01D00F2027
:10089000A9E7019810F4800F01D01020A3E7019878
:1008A00010F4001F01D011209DE7019810F4801F63
:1008B00001D0122097E7019810F4002F01D01320E7
:1008C00091E7019810F4802F01D014208BE7019854
:1008D00010F4003F01D0152085E7019810F4803F07
:1008E00001D016207FE7019810F4004F01D01720A7
:1008F00079E7019810F4804F01D0182073E7019830
:1009000010F4005F01D019206DE7019810F0080F76
:1009100001D01A2067E7284665E700003000002074
:10092000E89000200080014008E0FFFD00BFFEE7E6
:10093000704708B54FF4C06000F04AF831208DF8D8
:10094000000000208DF801008DF8020001208DF8D4
:100950000300684600F002F808BD000070B50021F1
:1009600000230F22C4780CB3164C246804F4E0640E
:10097000C4F5E064210AC1F10403CA40447804FAD2
:1009800003F184781440214309010F4C0678A155E6
:10099000047804F01F050124AC4005786D114FF078
:1009A000E02606EB8505C5F8004109E0047804F06F
:1009B0001F050124AC40054D0678761145F8264008
:1009C00070BD00000CED00E000E400E080E100E01C
:1009D00002490143024A1160704700000000FA0515
:1009E0000CED00E07047000029B1064A526902434D
:1009F000044B5A6104E0034A52698243014B5A6135
:100A0000704700000010024029B1064A9269024373
:100A1000044B9A6104E0034A92698243014B9A6154
:100A2000704700000010024030B500210022002471
:100A300000232D4D6D6805F00C0121B1042905D06E
:100A4000082923D105E0294D056022E0274D0560E6
:100A50001FE0254D6D6805F47012234D6D6805F497
:100A60008034022505EB92421CB9214D55430560A7
:100A70000BE01D4D6D6815F4003F03D01C4D554330
:100A8000056002E0194D5543056002E0174D056011
:100A900000BF00BF144D6D6805F0F0010909154D48
:100AA0006B5C0568DD4045600F4D6D6805F4E061E5
:100AB000090A104D6B5C4568DD4085600A4D6D6824
:100AC00005F46051C90A0B4D6B5C4568DD40C5609B
:100AD000054D6D6805F44041890B074D6B5CC56899
:100AE000B5FBF3F5056130BD0010024000127A003D
:100AF00000093D0015000020250000207CB50546BA
:100B0000002400200090019000F026F910F0007FF2
:100B100002D00E2420467CBD43A001F0C3FC454911
:100B2000098888B26946FFF7B7FC04460CB1204635
:100B3000F1E741A001F0B6FC012D3ED1019810F47F
:100B4000802F34D03B480088000442490860372099
:100B50004860402088600020C860A80208610846FC
:100B600000F038F93720FFF751FB04460CB120465E
:100B7000D1E739A001F096FC022036490860062032
:100B80004860402088600020C8604FF480600861A1
:100B9000084600F01FF90620FFF738FB04460CB1A9
:100BA0002046B8E732A001F07DFC2046B3E72524BB
:100BB00036A001F077FC2046ADE7019810F4803FA5
:100BC0002FD01C4800880004224908603720486064
:100BD000402088600020C8604FF4806008610846AB
:100BE00000F0F8F83720FFF711FB04460CB120465F
:100BF00091E700201749086006204860402088607F
:100C00000020C8604FF480600861084600F0E2F8F8
:100C10000620FFF7FBFA04460CB120467BE720468E
:100C200079E72524204676E70D0A20BFA8CEB4C96F
:100C3000CFCBF800300000200D0A20BBF1C8A15333
:100C4000435220BCC4B4E6C6F7CAFDBEDDB3C9B981
:100C5000A6000000E89000200D0AB4CBBFA8D6A7DC
:100C6000B3D634CEBBD7DCCFDFB7BDCABD200000C2
:100C70000D0AD2D1BFAAC6F4CBC4CEBBCAFDBEDD1D
:100C8000CFDFB4ABCAE4C4A3CABD20000D0A5344ED
:100C9000BFA8C7EBC7F3CEB4CFECD3A600000000CB
:100CA0000149886370470000008001400149886362
:100CB0007047000000800140014908607047000053
:100CC000A000304201490860704700008C053042A6
:100CD00000210A4B02685A6242689A621A46D16A37
:100CE00021F0F701D0E902231A4303691A4343694B
:100CF0001A431143014AD16270470000008001404D
:100D000000200649086048608860C86048628862C0
:100D1000C862034888630020C863704700800140B0
:100D2000FF07C00001480069C0B270470080014061
:100D300001460020034A526B0A4201D0012000E024
:100D400000207047008001400248006800F0030066
:100D5000704700000080014008B501460020009067
:100D60000248084400900098006808BD14800140C3
:100D700010B500F023FF10BD29B1064AD26B024323
:100D8000044BDA6304E0034AD26B8243014BDA631B
:100D9000704700000080014000210A4A516847F670
:100DA000FF629143027D83681A4343681A43C36814
:100DB0001A4303681A4303691A431143014A5160F5
:100DC0007047000000800140014800687047000043
:100DD000808001400021094B02689A601A46D16860
:100DE0006FF30A01D0E901231A43C3681A43036968
:100DF0001A431143014AD16070470000008001404E
:100E00000549096821F00301034A11601146096888
:100E100001431160704700000080014010B5024896
:100E2000FFF7F8FA10BD00000020001030B58BB0BD
:100E300005460C461348FFF7D3FA00211248FFF786
:100E4000DDFA12480090019500200290A00803905E
:100E5000002004908020059080000690800007907C
:100E6000002008904FF40050099000200A90694635
:100E70000548FFF7E5FA01210348FFF7BFFA0BB079
:100E800030BD000000F000104404024080800140AA
:100E900030B58BB005460C461348FFF7A1FA002188
:100EA0001248FFF7ABFA124800900195102002900B
:100EB000A0080390002004908020059080000690F8
:100EC00080000790002008904FF400500990002007
:100ED0000A9069460548FFF7B3FA01210348FFF776
:100EE0008DFA0BB030BD000000F000104404024049
:100EF0008080014070B5044600252C480068032816
:100F000005D127252AA001F0CDFA284670BD274833
:100F1000006838B125480068012803D023480068DC
:100F200002283ED1B4F5805F05D1272525A001F028
:100F3000B9FA2846EAE7B4F5006F1BD10120FFF7A4
:100F4000DDFD054625A001F0ADFA002D29D10120D7
:100F50002E49087500200860486088604FF40060E2
:100F6000C860002008610846FFF716FF28A001F0BE
:100F700099FA16E00020FFF7C1FD05468DB929A0BA
:100F800001F090FA012021490875002008604860AE
:100F90008860C86008610846FFF7FEFE28A001F0DF
:100FA00081FA2DA001F07EFA2846AFE72C00002040
:100FB0000D0A20B2BBD6A7B3D6B5C4BFA8D0CDCC3E
:100FC000D8D5F7000D0AB2BBD6A7B3D6B0CBCEBBEF
:100FD000CAFDBEDDD7DCCFDF200000000D0A20CA2D
:100FE000FDBEDDD7DCCFDFD7BCB1B8CDEAB1CFA332
:100FF000ACBCB4BDABBDF8D0D0CAFDBEDDD7DCCF34
:10100000DFC4A3CABDC5E4D6C3000000D090002051
:101010000D0A20CAFDBEDDD7DCCFDFC5E4D6C3CDC7
:10102000EAB3C9000D0A20BDF8C8EBB5A5CAFDBEDC
:10103000DD20CFDFC4A3CABDC5E4D6C300000000D5
:101040000D0A20B5A5CAFDBEDDCFDFC4A3CABDC54C
:10105000E4D6C3CDEAB3C9000D0A20002DE9FC4156
:1010600005460E46002400270020019000904448C9
:101070004068202111EA105F03D125242046BDE8F5
:10108000FC8140484068C0B2801C3F49B1FBF0F091
:1010900001900020FFF760FE10F0007F02D00E24C8
:1010A0002046ECE739480068022801D16D0A760A2B
:1010B0003648006838B135480068012803D0334805
:1010C000006802282BD13248056020203049486052
:1010D000402088600020C8604FF4806008610846A6
:1010E000FFF778FE2020FFF791F804460CB1204668
:1010F000C5E72748066021202549486040208860D0
:101100000020C8604FF4806008610846FFF762FE67
:101110002120FFF77BF804460CB12046AFE7002002
:101120001B49086026204860402088600020C86075
:101130004FF4806008610846FFF74CFE2620FFF759
:1011400065F804460CB1204699E7002700E07F1CB3
:1011500001988742FBD36846FFF71AFB044603E079
:101160006846FFF715FB04463CB99DF800000728C8
:10117000F6D09DF800000628F2D020467FE7000058
:101180005090002000800140C0D401002C000020BD
:10119000E890002010B51D48007830B94FF4804128
:1011A0000020FFF75BFF1949087019A001F07AF9D8
:1011B0001648007880B920231A010021194800F050
:1011C00097FD1249087000F0A5FE1049087000BF95
:1011D00000F0D3F90028FBD10C48007848B912A0E0
:1011E00001F060F94FF480410E4801F025FA1349EF
:1011F000087012480078012803D111A001F052F9BB
:1012000002E014A001F04EF910BD00000000002023
:101210000D0A20BDF8C8EBB2C1B3FDBAAFCAFD20BC
:1012200000000000444000200D0A20D5FDD4DABDA6
:10123000F8D0D0B6D4B1C8A3A1200000010000208E
:101240000D0A20B2C1B3FDB2E2CAD4B3C9B9A6A394
:10125000A12000000D0A20B2C1B3FDB2E2CAD4CA77
:10126000A7B0DCA3A120000030B501460020002279
:10127000B74B1B7881F84E30B64B1B88A1F84C3029
:10128000B54B1B681A0E93090B70C2F383034B70A6
:1012900002F003038B70B04B1B68C3F30742CA70A4
:1012A000AD4B1B88C3F307220A71AB4B1A784A7106
:1012B0005B681A0E1301CB80A74B5B68C3F3074230
:1012C000CB8843EA1213CB8002F00F030B72A24BC0
:1012D0009B88C3F30722D3094B72C2F380138B722E
:1012E000C2F34013CB72C2F300130B7300234B7392
:1012F000974B1B681BB1964B1B68012B3CD1930786
:101300001B0D0B61944B1A790B6943EA82030B6145
:10131000914B9B681A0E0B6943EA92130B61C2F35F
:10132000C2030B7502F007034B758B4B9B68C3F32D
:10133000074253098B75C2F38203CB7593075B0F8A
:101340000B76854B1B89C3F307220B7E43EAD2132E
:101350000B760B695B1C4B640C7E4B6CA41C01254B
:10136000A5406B434B640C7A0123A3408B64D1E905
:10137000113463434B6421E0754B1B68022B1DD174
:10138000754B1A7993069B0A0B61734B9B681A0E77
:101390000B6943EA02230B616F4B9B68C3F307425F
:1013A0000B6913430B616C4B1B89C3F307220B6959
:1013B0005B1CDB044B644FF400738B64C2F380133B
:1013C00001F8193F93065B0E4B70634B1A7A4B780A
:1013D00043EAD2134B7002F07F038B705E4BDB68E5
:1013E0001A0ED309CB70C2F341130B71C2F38203FF
:1013F0004B7193071B0F8B71574BDB68C3F307428D
:101400008B7943EA92138B71C2F34013CB710023A3
:101410000B7202F001034B724F4B9B89C3F30722FF
:10142000D3098B72C2F38013CB72C2F340130B73D8
:10143000C2F300134B73C2F381038B7302F00303F7
:10144000CB73454B1A7B53080B7401234B74434BEE
:101450001B681A0ECA74A1F11901404B1B68C3F333
:1014600007424FEA0224CC853C4B1B88C3F307227A
:10147000CB8D43EA0203CB85384B1A784FEA0264DE
:101480000C635B684FEA13620B6B43EA02440C6324
:10149000324B5B68C3F307420B6B43EA02240C63D5
:1014A0002E4B9B88C3F307220B6B43EA02030B63AB
:1014B0002A4B1A794FF034035A54284B9B684FEA51
:1014C00013624FF035035A54244B9B68C3F3074211
:1014D0004FEA02648C63214B1B89C3F307228B6B99
:1014E00043EA02448C631D4B1A7A8B6B43EA022455
:1014F0008C631A4BDB684FEA13628B6B43EA02037F
:101500008B63164BDB68C3F307424FF03C035B5C15
:1015100043EA12144FF03C035C544FEA02734FEA63
:101520001354CC870D4B9B89C3F30722CB8F43EA1F
:101530000203CB87094B1A7B4FEA52044FF040035A
:101540005C544FF001044FF041035C5430BD000087
:101550002C000020300000205090002060900020DF
:1015600008B500200090684600F050FC08B1FF204C
:1015700008BD0098C0F34320FAE710B50424FFF734
:10158000EFFF0446042C01D1002010BDFF2C01D137
:101590000220FAE70120F8E710B50024FFF748F829
:1015A000FFF7AEFB00F0ECF9044624B120A000F0F8
:1015B00079FF204610BD23A000F074FF00F09EF8D4
:1015C000044624B124A000F06DFF2046F2E727A0D6
:1015D00000F068FF01202A49087500200860486073
:1015E0008860C86008610846FFF7D6FB34B925A0BB
:1015F00000F058FF2D48FFF737FE04464CB92CA0E9
:1016000000F050FF2949B1F84C10080400F0E4FB49
:1016100004463CB92DA000F045FF4FF40060FFF7F1
:1016200069FC04462EA000F03DFF2046C2E7000002
:1016300020205344BFA8CFECD3A6B3ACCAB12E0D23
:101640000A000000205344BFA8CAB6B1F0B3C9B91C
:10165000A6202E0D0A000000205344BFA8B3F5CAEF
:10166000BCBBAFCAA7B0DC202E0D0A00205344BF7C
:10167000A8B3F5CABCBBAFB3C9B9A6202E0D0A00EA
:10168000D090002020D5FDD4DAB6C1C8A1BFA843B0
:101690005344BCC4B4E6C6F720A3ACB6C1C8A1BFCE
:1016A000A8494420BAC52E0D0A00000080900020F1
:1016B000205344BFA8435344BCC4B4E6C6F7B6C1E4
:1016C000C8A1B3C9B9A620202E0D0A00205344BFDB
:1016D000A8D2D1D1A1D4F1B3C9B9A62E0D0A000068
:1016E00020D2D1BFAAC6F434CEBBCAFDBEDDB4AB96
:1016F000CAE4C4A3CABD202E0D0A000038B50024D8
:1017000001200090FFF720FB10B92524204638BDAA
:1017100044480068042828D000204349086002207B
:101720004860C02088600020C8604FF48060086175
:101730000846FFF74FFBFEF77DFD04460CB120463F
:10174000E5E70020FFF708FB384908600420FFF7B1
:1017500003FB364948600820FFF7FEFA33498860EA
:101760000C20FFF7F9FA3149C8602E48006858B1DB
:101770002C480068012807D02A480068062803D0B2
:1017800028480068022816D1002027490860032055
:101790004860402088600020C8604FF48060086185
:1017A0000846FFF717FB69460320FEF783FD044652
:1017B0000CB12046ABE71B48006804282ED0BDF8CA
:1017C00000001B490860BDF80000000416490860CD
:1017D00009204860C02088600020C8604FF4806005
:1017E00008610846FFF7F6FAFEF724FD04460CB13F
:1017F00020468CE70020FFF7AFFA0E49086004206E
:10180000FFF7AAFA0B4948600820FFF7A5FA094933
:1018100088600C20FFF7A0FA0649C8600024204623
:1018200075E700002C000020E89000206090002068
:10183000300000205090002010B5002400224FF40A
:1018400080413048FEF71BFE2F480078F8B920236E
:101850001A0100212B4800F011FC2B49087000F000
:1018600081FB2949087000BFFFF787FE0028FBD1E4
:10187000002406E02348015D24A000F013FE601C54
:1018800084B2B4F5007FF5DB27A000F00BFE1E4804
:101890000078F8B920231A010021244800F028FA22
:1018A0001949087000F036FB1749087000BFFFF7B0
:1018B00064FE0028FBD1002406E01C48015D1CA04A
:1018C00000F0F0FD601C84B2B4F5007FF5DB16A0DB
:1018D00000F0E8FD0C48007838B94FF48042134915
:1018E0000848FEF769FC1949087018480078012873
:1018F00003D117A000F0D6FD02E01BA000F0D2FD3E
:1019000010BD000044000020000000200D0A20B798
:10191000A2CBCDBBBAB3E5C7F8C4DAB5C4CAFDBE25
:10192000DDCEAA20256400000D0A000044400020FE
:101930000D0A20BDD3CAD5BBBAB3E5C7F8C4DAB522
:10194000C4CAFDBEDDCEAA2025640000030000202D
:101950000D0A20B6E0BFE9B6C1D0B4B2E2CAD4B332
:10196000C9B9A6A3A12000000D0A20B6E0BFE9B6C0
:10197000C1D0B4B2E2CAD4CAA7B0DCA3A12000008F
:101980002DE9F0410024002600250027A046B220C2
:10199000614908750020086048608860C860086177
:1019A0000846FFF7F9F90320FFF72AFA0120FFF7AD
:1019B00083F900205949086048608860C8604FF486
:1019C000806008610846FFF705FAFEF708FC044648
:1019D0002CB153A000F066FD2046BDE8F08156A072
:1019E00000F060FD4FF4D5704C4908600820486055
:1019F000402088600020C8604FF48060086108467D
:101A0000FFF7E8F9FEF7A4FC044644B90120504969
:101A100008604FF080484FA000F044FD15E0002022
:101A20003E49086037204860402088600020C86038
:101A30004FF4806008610846FFF7CCF93720FEF7C5
:101A4000E5FB04464BA000F02DFD00203349086063
:101A500037204860402088600020C8604FF48060D4
:101A600008610846FFF7B6F93720FEF7CFFB0446BA
:101A7000002C4BD136E00020284908603720486010
:101A8000402088600020C8604FF4806008610846EC
:101A9000FFF7A0F93720FEF7B9FB04460CB120464A
:101AA0009BE7404848EA00001C490860292048603C
:101AB000402088600020C8604FF4806008610846BC
:101AC000FFF788F9FEF7DAFB04460CB1204684E7FD
:101AD0000020FFF741F90646012080EAD67080F029
:101AE00001076D1C1FB94FF6FF708542C3D34FF637
:101AF000FF70854202D31B2420466EE706F080402B
:101B0000060006D002201249086002E026A000F07C
:101B1000C9FC204661E70000D0900020E89000203A
:101B2000200D0A20CEB4BDD3CAD5B5BD30BAC5C3C9
:101B3000FCC1EE20200D0A000D0A20D2D1BDD3CA6F
:101B4000D5B5BD30BAC5C3FCC1EE2E0D0A000000EC
:101B50002C00002020D2D1C8B7B6A8CEAAB7FBBAB5
:101B6000CF322E30D0ADD2E9B5C45344BFA8202027
:101B70000D0A000020322E30D0ADD2E9CEDECFECFF
:101B8000D3A6A3ACBFC9C4DCCEAA312E30BFA8BB3C
:101B9000F2D5DFBFA8B2BBB4E6D4DAA3A120200DF2
:101BA0000A0000000000108020D2D1CAB6B1F0CEE9
:101BB000AA4D4D4320200D0A0000000010B5114829
:101BC000006801280BD100200F49886040F24C408A
:101BD000C8600C20FEF71AFB0C49087002E00020D8
:101BE0000A4908704FF48070FFF760F800214FF445
:101BF0008070FFF7C1F801200549086003480078AC
:101C000010BD00003400002000800140380000209A
:101C10003C0000202DE9F04107460D461446002601
:101C200000202C4908702C4908602C4908602C4978
:101C3000C8622C480068022801D104026D0A2A48B3
:101C40000460102028494860402088600020C86057
:101C50004FF4806008610846FFF7BCF81020FEF7DB
:101C6000D5FA064616B13046BDE8F0814FF0FF3098
:101C70001E49086008464460902088600220C860C1
:101C800000200861012048610846FFF721F8164846
:101C90000560112014494860402088600020C86019
:101CA0004FF4806008610846FFF794F81120FEF7B2
:101CB000ADFA06460EB13046D6E701210802FFF71D
:101CC0005BF80120FEF7FEFF21463846FFF7AEF82D
:101CD0003046C9E7380000203C00002034000020D6
:101CE000008001402C000020E8900020FC900020A3
:101CF0002DE9F04180460D4614461E46002700207F
:101D00002E4908702E49086001202E4908600020E5
:101D10002D49C8622D480068022801D104026D0ACD
:101D20002B48046010202A49486040208860002029
:101D3000C8604FF4806008610846FFF74BF8102038
:101D4000FEF764FA074617B13846BDE8F0814FF058
:101D5000FF302049086006FB04F04860902088604E
:101D60000220C86000200861012048610846FEF793
:101D7000AFFF174805601220154948604020886071
:101D80000020C8604FF4806008610846FFF722F821
:101D90001220FEF73BFA07460FB13846D5E701217E
:101DA0000802FEF7E9FF0120FEF78CFF06FB04F1B5
:101DB0004046FFF73BF83846C7E7000038000020F0
:101DC0003C00002034000020008001402C00002056
:101DD000E8900020FC90002070B5044600250A48D9
:101DE0000460072008494860402088600020C860DF
:101DF0004FF4806008610846FEF7ECFF0720FEF70D
:101E000005FA0546284670BDE890002070B50446E6
:101E100000250A48008800040949886040F24D40C6
:101E2000C8600D20FEF7F2F905460DB1284670BDD9
:101E30000348406920602846F9E700003000002090
:101E40000080014010B543F20F224FF40071214889
:101E5000FEF715FB2048007880B94FF4007200218E
:101E60001C4800F09DF81C49087000F07BF81A49E6
:101E7000087000BFFFF781FB0028FBD116480078EF
:101E800080B94FF4007200211448FFF7C3FE1249D5
:101E9000087000F03FF81049087000BFFFF76DFBB5
:101EA0000028FBD10C48007838B94FF400720B4978
:101EB0000848FEF781F90A490870094800780128A6
:101EC00003D108A000F0EEFA02E00CA000F0EAFA5C
:101ED00010BD00004480002000000020448200204B
:101EE000020000200D0A20B5A5BFE9B6C1D0B4B2EA
:101EF000E2CAD4B3C9B9A6A3A10000000D0A20B557
:101F0000A5BFE9B6C1D0B4B2E2CAD4CAA7B0DCA3B7
:101F1000A120000010B500240AA000F0C3FA00BF01
:101F2000FEF77CFF30B90D48006818B90C480078FE
:101F30000028F5D00A48007810B10948007810BD93
:101F40002046FCE70D0A20B5C8B4FD444D41B4ABB2
:101F5000CAE4B3C9B9A62020000000003C0000205C
:101F60003800002010B5002400BFFEF757FF30B93D
:101F70000948006818B9094800780028F5D00748D2
:101F8000007810B10548007810BD40F2FF50FEF710
:101F900087FE2046F8E700003C00002038000020C3
:101FA0002DE9F04107460D461446002600202C4935
:101FB00008702C4908602C4908602C49C8622C48DC
:101FC0000068022801D104026D0A2A48046010202A
:101FD00028494860402088600020C8604FF4806035
:101FE00008610846FEF7F6FE1020FEF70FF90646D8
:101FF00016B13046BDE8F0811E48056018201D4925
:102000004860402088600020C8604FF4806008610C
:102010000846FEF7DFFE1820FEF7F8F806460EB178
:102020003046E7E74FF0FF30134908600846446048
:10203000902088600020C86008610120486108463F
:10204000FEF746FE01210802FEF796FE21463846BD
:10205000FEF71EFF0120FEF735FE3046CAE70000FE
:10206000380000203C0000203400002000800140A7
:102070002C000020E8900020FC9000202DE9F8437F
:1020800080460F4615461E46002400200090454914
:10209000087045490860012044490860002044490F
:1020A000C86244480068022801D105027F0A4248FC
:1020B0000560102040494860402088600020C860CA
:1020C0004FF4806008610846FEF784FE1020FEF79A
:1020D0009DF8044614B12046BDE8F88337480088CF
:1020E000000435490860372048604020886000209F
:1020F000C8604FF4806008610846FEF76BFE372029
:10210000FEF784F804460CB12046E5E72A4806604D
:10211000172029494860402088600020C8604FF49B
:10212000806008610846FEF755FE1720FEF76EF83E
:1021300004460CB12046CFE71F48076019201E490E
:102140004860402088600020C8604FF480600861CB
:102150000846FEF73FFE1920FEF758F804460CB17A
:102160002046B9E74FF0FF301549086006FB05F03F
:102170004860902088600020C860086101204861A4
:102180000846FEF7A5FD01210802FEF7F5FD012036
:10219000FEF798FD06FB05F14046FEF779FE204666
:1021A0009AE70000380000203C00002034000020A6
:1021B000008001402C000020E8900020300000202A
:1021C000FC900020704710B500F002F810BD000030
:1021D0000CB50020019000903248006840F4803037
:1021E0003049086000BF2F48006800F400300090BC
:1021F0000198401C0190009818B90198B0F5A06FA3
:10220000F1D12848006810F4003F02D0012000906E
:1022100001E0002000900098012842D12248006887
:1022200040F01000204908600846006820F00300D4
:1022300008600846006840F00200086019484068DD
:10224000184948600846406848600846406840F4BD
:10225000806048600846406820F47C10486008466A
:10226000406840F4E81048600846006840F080701C
:10227000086000BF0B48006810F0007FFAD00948E2
:10228000406820F00300074948600846406840F075
:102290000200486000BF0348406800F00C000828B6
:1022A000F9D10CBD00100240002002407047000030
:1022B00010B51348006840F0010011490860084655
:1022C0004068104908400E494860084600680E49B9
:1022D00008400B4908600846006820F48020086028
:1022E0000846406820F4FE0048604FF41F008860F4
:1022F000FFF769FF4FF000600449086010BD00005F
:10230000001002400000FFF8FFFFF6FE08ED00E0BD
:1023100000B585B0012144F20400FEF775FB4FF4CF
:102320000070ADF8100018208DF8130003208DF810
:10233000120004A91348FEF79FF94FF48060ADF82E
:10234000100004208DF8130004A90E48FEF794F93C
:102350004FF4E13000900020ADF80400ADF8060025
:10236000ADF80800ADF80C000C20ADF80A00694685
:10237000054800F025F80121034800F007F805B0F2
:1023800000BD0000000801400038014021B18289F1
:1023900042F40052828104E082894DF6FF731A40B4
:1023A0008281704702460020B1F5007F00D100BF56
:1023B00013880B4201D0012000E00020704700008C
:1023C0002DE9F04786B005460E460024A24600BF20
:1023D000A1460027B08900B100BF2F462C8A4CF6D9
:1023E000FF700440F08804432C82AC894EF6F31051
:1023F0000440B08831890843718908430443AC81A3
:10240000AC8A4FF6FF400440B0890443AC8201A877
:10241000FEF70AFB1F48874202D1DDF810A001E059
:10242000DDF80CA0A88910F4004F08D00AEBCA0010
:1024300000EB0A1031684900B0FBF1F807E00AEB45
:10244000CA0000EB0A1031688900B0FBF1F8642083
:10245000B8FBF0F004012009642101FB1089A88970
:1024600010F4004F08D0322000EBC900B0FBF1F0AF
:1024700000F00700044308E0322000EB091064215B
:10248000B0FBF1F000F00F0004432C8106B0BDE872
:10249000F087000000380140C1F3080282807047D5
:1024A00000BFFEE70FB4054B10B503A9044A02981C
:1024B00000F018F810BC5DF814FB00005926000865
:1024C0004000002002E008C8121F08C1002AFAD10B
:1024D00070477047002001E001C1121F002AFBD1A4
:1024E000704700002DE9FF4F89B09B460446002548
:1024F00097E0252833D10027641C4E49B8460122B5
:102500002378203B02FA03F0084202D00743641C00
:10251000F6E720782E2819D114F8010F47F00407A8
:102520002A280ED06FF02F022078A0F1300109295F
:102530000CD808EB880102EB410100EB0108641C98
:10254000F2E70A98641C50F8048B0A90207800285F
:102550006BD0642808D0692806D0752820D05A4648
:102560000B9990476D1C5BE00A994FF00A0901C96D
:102570000A91002804DAC0F100004FF02D0102E0BA
:10258000390504D52B218DF82010012103E0F9072E
:1025900004D02021F7E78A4608AE0EE00021FAE7D2
:1025A0000A994FF00A0901C90A91F7E74946FDF770
:1025B000DBFD01F1300106F8011D0028F6D1ADEB7D
:1025C000060000F12009780701D44FF00108C84542
:1025D00002DDA8EB090000E000208046002706E0AD
:1025E00008A85A46C05D0B9990476D1C7F1C574543
:1025F000F6DB04E030205A460B9990476D1CB8F189
:102600000001A8F10108F5DC05E016F8010B5A46B7
:102610000B9990476D1CB9F10001A9F10109F4DC97
:10262000641C207800287FF464AF0DB02846BDE814
:10263000F08F000009280100024607E01078FF280B
:1026400003D0107808B100207047521C0800A1F197
:102650000101F3D10120F7E770B504460D46E1B260
:102660000548FFF719FF00BF40210348FFF79AFE16
:102670000028F9D0204670BD0038014010B5FEF7A3
:1026800058F9FFF745FEFEF787FF10B1012808D182
:1026900003E01DA0FFF706FF07E023A0FFF702FFFE
:1026A00003E029A0FFF7FEFE00BF00BF294890F815
:1026B0004E1029A0FFF7F6FE2648416C2CA0FFF72C
:1026C000F1FE2448816C31A0FFF7ECFE2148B0F800
:1026D0004C1035A0FFF7E6FE1E4890F82C1037A0EE
:1026E000FFF7E0FE3DA0FFF7DDFEFEF753FD42A041
:1026F000FFF7D8FEFFF7A6FB46A0FFF7D3FEFFF7D4
:102700009BF8002010BD00002053442043617264F8
:1027100020496E6974205375636365737366756CC5
:102720006C790D0A00000000496E69742070726FA8
:102730006365737320697320676F696E67207772B2
:102740006F6E672E2E2E00002020C7EBD6D8CAD47D
:102750000000000080900020200D0A204361726478
:102760005479706520697320A3BA256420000000A5
:10277000200D0A204361726443617061636974795A
:1027800020697320A3BA256420000000200D0A20D0
:1027900043617264426C6F636B53697A652069733D
:1027A00020A3BA2564200000200D0A2052434120B6
:1027B000697320A3BA25642000000000200D0A20C0
:1027C0004D616E7566616374757265724944206906
:1027D0007320A3BA2564200D0A00000020200D0AF2
:1027E000BCB4BDABBDF8D0D0B2C1B3FDC9C8C7F849
:1027F000B2E2CAD40D0A000020200D0A20BCB4BDEC
:10280000ABBDF8D0D0B5A5BFE9B6C1D0B4B2E2CA6D
:10281000D4720A0020200D0A20BCB4BDABBDF8D094
:10282000D0B6E0BFE9B6C1D0B4B2E2CAD4720A00F1
:10283000502800080000002044000000C4240008C4
:102840009428000844000020D4940000D4240008F8
:102850000000000068656C6C6F20657665727920F9
:10286000626F6479000000000001020304010203AA
:102870000406070809020406080000000000000022
:102880000000000000000000000000000000000048
:042890000000000044
:0400000508000145A9
:00000001FF
